{
  "_format": "hh-sol-artifact-1",
  "contractName": "ERC20Launcher",
  "sourceName": "contracts/ERC20Launcher.sol",
  "abi": [
    {
      "inputs": [
        {
          "internalType": "string",
          "name": "name",
          "type": "string"
        },
        {
          "internalType": "string",
          "name": "symbol",
          "type": "string"
        },
        {
          "internalType": "uint256",
          "name": "initialSupply",
          "type": "uint256"
        },
        {
          "internalType": "uint8",
          "name": "_decimals",
          "type": "uint8"
        },
        {
          "internalType": "uint256",
          "name": "_maxSupply",
          "type": "uint256"
        }
      ],
      "stateMutability": "nonpayable",
      "type": "constructor"
    },
    {
      "inputs": [
        {
          "internalType": "address",
          "name": "spender",
          "type": "address"
        },
        {
          "internalType": "uint256",
          "name": "allowance",
          "type": "uint256"
        },
        {
          "internalType": "uint256",
          "name": "needed",
          "type": "uint256"
        }
      ],
      "name": "ERC20InsufficientAllowance",
      "type": "error"
    },
    {
      "inputs": [
        {
          "internalType": "address",
          "name": "sender",
          "type": "address"
        },
        {
          "internalType": "uint256",
          "name": "balance",
          "type": "uint256"
        },
        {
          "internalType": "uint256",
          "name": "needed",
          "type": "uint256"
        }
      ],
      "name": "ERC20InsufficientBalance",
      "type": "error"
    },
    {
      "inputs": [
        {
          "internalType": "address",
          "name": "approver",
          "type": "address"
        }
      ],
      "name": "ERC20InvalidApprover",
      "type": "error"
    },
    {
      "inputs": [
        {
          "internalType": "address",
          "name": "receiver",
          "type": "address"
        }
      ],
      "name": "ERC20InvalidReceiver",
      "type": "error"
    },
    {
      "inputs": [
        {
          "internalType": "address",
          "name": "sender",
          "type": "address"
        }
      ],
      "name": "ERC20InvalidSender",
      "type": "error"
    },
    {
      "inputs": [
        {
          "internalType": "address",
          "name": "spender",
          "type": "address"
        }
      ],
      "name": "ERC20InvalidSpender",
      "type": "error"
    },
    {
      "anonymous": false,
      "inputs": [
        {
          "indexed": true,
          "internalType": "address",
          "name": "owner",
          "type": "address"
        },
        {
          "indexed": true,
          "internalType": "address",
          "name": "spender",
          "type": "address"
        },
        {
          "indexed": false,
          "internalType": "uint256",
          "name": "value",
          "type": "uint256"
        }
      ],
      "name": "Approval",
      "type": "event"
    },
    {
      "anonymous": false,
      "inputs": [
        {
          "indexed": true,
          "internalType": "address",
          "name": "from",
          "type": "address"
        },
        {
          "indexed": true,
          "internalType": "address",
          "name": "to",
          "type": "address"
        },
        {
          "indexed": false,
          "internalType": "uint256",
          "name": "value",
          "type": "uint256"
        }
      ],
      "name": "Transfer",
      "type": "event"
    },
    {
      "inputs": [
        {
          "internalType": "address",
          "name": "_owner",
          "type": "address"
        },
        {
          "internalType": "address",
          "name": "spender",
          "type": "address"
        }
      ],
      "name": "allowance",
      "outputs": [
        {
          "internalType": "uint256",
          "name": "",
          "type": "uint256"
        }
      ],
      "stateMutability": "view",
      "type": "function"
    },
    {
      "inputs": [
        {
          "internalType": "address",
          "name": "spender",
          "type": "address"
        },
        {
          "internalType": "uint256",
          "name": "amount",
          "type": "uint256"
        }
      ],
      "name": "approve",
      "outputs": [
        {
          "internalType": "bool",
          "name": "",
          "type": "bool"
        }
      ],
      "stateMutability": "nonpayable",
      "type": "function"
    },
    {
      "inputs": [
        {
          "internalType": "address",
          "name": "account",
          "type": "address"
        }
      ],
      "name": "balanceOf",
      "outputs": [
        {
          "internalType": "uint256",
          "name": "",
          "type": "uint256"
        }
      ],
      "stateMutability": "view",
      "type": "function"
    },
    {
      "inputs": [
        {
          "internalType": "uint256",
          "name": "amount",
          "type": "uint256"
        }
      ],
      "name": "burn",
      "outputs": [],
      "stateMutability": "nonpayable",
      "type": "function"
    },
    {
      "inputs": [],
      "name": "decimals",
      "outputs": [
        {
          "internalType": "uint8",
          "name": "",
          "type": "uint8"
        }
      ],
      "stateMutability": "view",
      "type": "function"
    },
    {
      "inputs": [],
      "name": "maxSupply",
      "outputs": [
        {
          "internalType": "uint256",
          "name": "",
          "type": "uint256"
        }
      ],
      "stateMutability": "view",
      "type": "function"
    },
    {
      "inputs": [
        {
          "internalType": "address",
          "name": "account",
          "type": "address"
        },
        {
          "internalType": "uint256",
          "name": "amount",
          "type": "uint256"
        }
      ],
      "name": "mint",
      "outputs": [],
      "stateMutability": "nonpayable",
      "type": "function"
    },
    {
      "inputs": [],
      "name": "name",
      "outputs": [
        {
          "internalType": "string",
          "name": "",
          "type": "string"
        }
      ],
      "stateMutability": "view",
      "type": "function"
    },
    {
      "inputs": [],
      "name": "owner",
      "outputs": [
        {
          "internalType": "address",
          "name": "",
          "type": "address"
        }
      ],
      "stateMutability": "view",
      "type": "function"
    },
    {
      "inputs": [],
      "name": "stopMinting",
      "outputs": [],
      "stateMutability": "nonpayable",
      "type": "function"
    },
    {
      "inputs": [],
      "name": "symbol",
      "outputs": [
        {
          "internalType": "string",
          "name": "",
          "type": "string"
        }
      ],
      "stateMutability": "view",
      "type": "function"
    },
    {
      "inputs": [],
      "name": "totalSupply",
      "outputs": [
        {
          "internalType": "uint256",
          "name": "",
          "type": "uint256"
        }
      ],
      "stateMutability": "view",
      "type": "function"
    },
    {
      "inputs": [
        {
          "internalType": "address",
          "name": "recipient",
          "type": "address"
        },
        {
          "internalType": "uint256",
          "name": "amount",
          "type": "uint256"
        }
      ],
      "name": "transfer",
      "outputs": [
        {
          "internalType": "bool",
          "name": "",
          "type": "bool"
        }
      ],
      "stateMutability": "nonpayable",
      "type": "function"
    },
    {
      "inputs": [
        {
          "internalType": "address",
          "name": "sender",
          "type": "address"
        },
        {
          "internalType": "address",
          "name": "recipient",
          "type": "address"
        },
        {
          "internalType": "uint256",
          "name": "amount",
          "type": "uint256"
        }
      ],
      "name": "transferFrom",
      "outputs": [
        {
          "internalType": "bool",
          "name": "",
          "type": "bool"
        }
      ],
      "stateMutability": "nonpayable",
      "type": "function"
    }
  ],
  "bytecode": "0x60806040523480156200001157600080fd5b50604051620023d4380380620023d4833981810160405281019062000037919062000633565b848481600390816200004a91906200093a565b5080600490816200005c91906200093a565b50505081600a6200006e919062000ba4565b836200007b919062000bf5565b811015620000c0576040517f08c379a0000000000000000000000000000000000000000000000000000000008152600401620000b79062000cc7565b60405180910390fd5b81600560146101000a81548160ff021916908360ff1602179055506200011733600560149054906101000a900460ff16600a620000fe919062000ba4565b856200010b919062000bf5565b6200016a60201b60201c565b33600560006101000a81548173ffffffffffffffffffffffffffffffffffffffff021916908373ffffffffffffffffffffffffffffffffffffffff16021790555080600681905550505050505062000df1565b600073ffffffffffffffffffffffffffffffffffffffff168273ffffffffffffffffffffffffffffffffffffffff1603620001df5760006040517fec442f05000000000000000000000000000000000000000000000000000000008152600401620001d6919062000d2e565b60405180910390fd5b620001f360008383620001f760201b60201c565b5050565b600073ffffffffffffffffffffffffffffffffffffffff168373ffffffffffffffffffffffffffffffffffffffff16036200024d57806002600082825462000240919062000d4b565b9250508190555062000323565b60008060008573ffffffffffffffffffffffffffffffffffffffff1673ffffffffffffffffffffffffffffffffffffffff16815260200190815260200160002054905081811015620002dc578381836040517fe450d38c000000000000000000000000000000000000000000000000000000008152600401620002d39392919062000d97565b60405180910390fd5b8181036000808673ffffffffffffffffffffffffffffffffffffffff1673ffffffffffffffffffffffffffffffffffffffff16815260200190815260200160002081905550505b600073ffffffffffffffffffffffffffffffffffffffff168273ffffffffffffffffffffffffffffffffffffffff16036200036e5780600260008282540392505081905550620003bb565b806000808473ffffffffffffffffffffffffffffffffffffffff1673ffffffffffffffffffffffffffffffffffffffff168152602001908152602001600020600082825401925050819055505b8173ffffffffffffffffffffffffffffffffffffffff168373ffffffffffffffffffffffffffffffffffffffff167fddf252ad1be2c89b69c2b068fc378daa952ba7f163c4a11628f55a4df523b3ef836040516200041a919062000dd4565b60405180910390a3505050565b6000604051905090565b600080fd5b600080fd5b600080fd5b600080fd5b6000601f19601f8301169050919050565b7f4e487b7100000000000000000000000000000000000000000000000000000000600052604160045260246000fd5b620004908262000445565b810181811067ffffffffffffffff82111715620004b257620004b162000456565b5b80604052505050565b6000620004c762000427565b9050620004d5828262000485565b919050565b600067ffffffffffffffff821115620004f857620004f762000456565b5b620005038262000445565b9050602081019050919050565b60005b838110156200053057808201518184015260208101905062000513565b60008484015250505050565b6000620005536200054d84620004da565b620004bb565b90508281526020810184848401111562000572576200057162000440565b5b6200057f84828562000510565b509392505050565b600082601f8301126200059f576200059e6200043b565b5b8151620005b18482602086016200053c565b91505092915050565b6000819050919050565b620005cf81620005ba565b8114620005db57600080fd5b50565b600081519050620005ef81620005c4565b92915050565b600060ff82169050919050565b6200060d81620005f5565b81146200061957600080fd5b50565b6000815190506200062d8162000602565b92915050565b600080600080600060a0868803121562000652576200065162000431565b5b600086015167ffffffffffffffff81111562000673576200067262000436565b5b620006818882890162000587565b955050602086015167ffffffffffffffff811115620006a557620006a462000436565b5b620006b38882890162000587565b9450506040620006c688828901620005de565b9350506060620006d9888289016200061c565b9250506080620006ec88828901620005de565b9150509295509295909350565b600081519050919050565b7f4e487b7100000000000000000000000000000000000000000000000000000000600052602260045260246000fd5b600060028204905060018216806200074c57607f821691505b60208210810362000762576200076162000704565b5b50919050565b60008190508160005260206000209050919050565b60006020601f8301049050919050565b600082821b905092915050565b600060088302620007cc7fffffffffffffffffffffffffffffffffffffffffffffffffffffffffffffffff826200078d565b620007d886836200078d565b95508019841693508086168417925050509392505050565b6000819050919050565b60006200081b620008156200080f84620005ba565b620007f0565b620005ba565b9050919050565b6000819050919050565b6200083783620007fa565b6200084f620008468262000822565b8484546200079a565b825550505050565b600090565b6200086662000857565b620008738184846200082c565b505050565b5b818110156200089b576200088f6000826200085c565b60018101905062000879565b5050565b601f821115620008ea57620008b48162000768565b620008bf846200077d565b81016020851015620008cf578190505b620008e7620008de856200077d565b83018262000878565b50505b505050565b600082821c905092915050565b60006200090f60001984600802620008ef565b1980831691505092915050565b60006200092a8383620008fc565b9150826002028217905092915050565b6200094582620006f9565b67ffffffffffffffff81111562000961576200096062000456565b5b6200096d825462000733565b6200097a8282856200089f565b600060209050601f831160018114620009b257600084156200099d578287015190505b620009a985826200091c565b86555062000a19565b601f198416620009c28662000768565b60005b82811015620009ec57848901518255600182019150602085019450602081019050620009c5565b8683101562000a0c578489015162000a08601f891682620008fc565b8355505b6001600288020188555050505b505050505050565b7f4e487b7100000000000000000000000000000000000000000000000000000000600052601160045260246000fd5b60008160011c9050919050565b6000808291508390505b600185111562000aaf5780860481111562000a875762000a8662000a21565b5b600185161562000a975780820291505b808102905062000aa78562000a50565b945062000a67565b94509492505050565b60008262000aca576001905062000b9d565b8162000ada576000905062000b9d565b816001811462000af3576002811462000afe5762000b34565b600191505062000b9d565b60ff84111562000b135762000b1262000a21565b5b8360020a91508482111562000b2d5762000b2c62000a21565b5b5062000b9d565b5060208310610133831016604e8410600b841016171562000b6e5782820a90508381111562000b685762000b6762000a21565b5b62000b9d565b62000b7d848484600162000a5d565b9250905081840481111562000b975762000b9662000a21565b5b81810290505b9392505050565b600062000bb182620005ba565b915062000bbe83620005f5565b925062000bed7fffffffffffffffffffffffffffffffffffffffffffffffffffffffffffffffff848462000ab8565b905092915050565b600062000c0282620005ba565b915062000c0f83620005ba565b925082820262000c1f81620005ba565b9150828204841483151762000c395762000c3862000a21565b5b5092915050565b600082825260208201905092915050565b7f4d617820737570706c79206d7573742062652067726561746572207468616e2060008201527f6f7220657175616c20746f20696e697469616c20737570706c79000000000000602082015250565b600062000caf603a8362000c40565b915062000cbc8262000c51565b604082019050919050565b6000602082019050818103600083015262000ce28162000ca0565b9050919050565b600073ffffffffffffffffffffffffffffffffffffffff82169050919050565b600062000d168262000ce9565b9050919050565b62000d288162000d09565b82525050565b600060208201905062000d45600083018462000d1d565b92915050565b600062000d5882620005ba565b915062000d6583620005ba565b925082820190508082111562000d805762000d7f62000a21565b5b92915050565b62000d9181620005ba565b82525050565b600060608201905062000dae600083018662000d1d565b62000dbd602083018562000d86565b62000dcc604083018462000d86565b949350505050565b600060208201905062000deb600083018462000d86565b92915050565b6115d38062000e016000396000f3fe608060405234801561001057600080fd5b50600436106100ea5760003560e01c806342966c681161008c57806395d89b411161006657806395d89b4114610239578063a9059cbb14610257578063d5abeb0114610287578063dd62ed3e146102a5576100ea565b806342966c68146101cf57806370a08231146101eb5780638da5cb5b1461021b576100ea565b806323b872dd116100c857806323b872dd1461015b578063313ce5671461018b5780633e3e0b12146101a957806340c10f19146101b3576100ea565b806306fdde03146100ef578063095ea7b31461010d57806318160ddd1461013d575b600080fd5b6100f76102d5565b6040516101049190610e9c565b60405180910390f35b61012760048036038101906101229190610f57565b610367565b6040516101349190610fb2565b60405180910390f35b610145610385565b6040516101529190610fdc565b60405180910390f35b61017560048036038101906101709190610ff7565b61038f565b6040516101829190610fb2565b60405180910390f35b6101936103d4565b6040516101a09190611066565b60405180910390f35b6101b16103eb565b005b6101cd60048036038101906101c89190610f57565b6104d6565b005b6101e960048036038101906101e49190611081565b610607565b005b610205600480360381019061020091906110ae565b61062d565b6040516102129190610fdc565b60405180910390f35b61022361063f565b60405161023091906110ea565b60405180910390f35b610241610665565b60405161024e9190610e9c565b60405180910390f35b610271600480360381019061026c9190610f57565b6106f7565b60405161027e9190610fb2565b60405180910390f35b61028f610715565b60405161029c9190610fdc565b60405180910390f35b6102bf60048036038101906102ba9190611105565b61071b565b6040516102cc9190610fdc565b60405180910390f35b6060600380546102e490611174565b80601f016020809104026020016040519081016040528092919081815260200182805461031090611174565b801561035d5780601f106103325761010080835404028352916020019161035d565b820191906000526020600020905b81548152906001019060200180831161034057829003601f168201915b5050505050905090565b600061037b61037461072f565b8484610737565b6001905092915050565b6000600254905090565b600061039c848484610749565b6103c9846103a861072f565b846103ba886103b561072f565b61071b565b6103c491906111d4565b610737565b600190509392505050565b6000600560149054906101000a900460ff16905090565b600560009054906101000a900473ffffffffffffffffffffffffffffffffffffffff1673ffffffffffffffffffffffffffffffffffffffff163373ffffffffffffffffffffffffffffffffffffffff161461047b576040517f08c379a00000000000000000000000000000000000000000000000000000000081526004016104729061127a565b60405180910390fd5b610483610385565b600654116104c6576040517f08c379a00000000000000000000000000000000000000000000000000000000081526004016104bd906112e6565b60405180910390fd5b6104ce610385565b600681905550565b600560009054906101000a900473ffffffffffffffffffffffffffffffffffffffff1673ffffffffffffffffffffffffffffffffffffffff163373ffffffffffffffffffffffffffffffffffffffff1614610566576040517f08c379a000000000000000000000000000000000000000000000000000000000815260040161055d9061127a565b60405180910390fd5b6006546105716103d4565b600a61057d9190611439565b826105889190611484565b610590610385565b61059a91906114c6565b11156105db576040517f08c379a00000000000000000000000000000000000000000000000000000000081526004016105d290611546565b60405180910390fd5b610603826105e76103d4565b600a6105f39190611439565b836105fe9190611484565b61083d565b5050565b61061133826108bf565b806006600082825461062391906111d4565b9250508190555050565b600061063882610941565b9050919050565b600560009054906101000a900473ffffffffffffffffffffffffffffffffffffffff1681565b60606004805461067490611174565b80601f01602080910402602001604051908101604052809291908181526020018280546106a090611174565b80156106ed5780601f106106c2576101008083540402835291602001916106ed565b820191906000526020600020905b8154815290600101906020018083116106d057829003601f168201915b5050505050905090565b600061070b61070461072f565b8484610749565b6001905092915050565b60065481565b60006107278383610989565b905092915050565b600033905090565b6107448383836001610a10565b505050565b600073ffffffffffffffffffffffffffffffffffffffff168373ffffffffffffffffffffffffffffffffffffffff16036107bb5760006040517f96c6fd1e0000000000000000000000000000000000000000000000000000000081526004016107b291906110ea565b60405180910390fd5b600073ffffffffffffffffffffffffffffffffffffffff168273ffffffffffffffffffffffffffffffffffffffff160361082d5760006040517fec442f0500000000000000000000000000000000000000000000000000000000815260040161082491906110ea565b60405180910390fd5b610838838383610be7565b505050565b600073ffffffffffffffffffffffffffffffffffffffff168273ffffffffffffffffffffffffffffffffffffffff16036108af5760006040517fec442f050000000000000000000000000000000000000000000000000000000081526004016108a691906110ea565b60405180910390fd5b6108bb60008383610be7565b5050565b600073ffffffffffffffffffffffffffffffffffffffff168273ffffffffffffffffffffffffffffffffffffffff16036109315760006040517f96c6fd1e00000000000000000000000000000000000000000000000000000000815260040161092891906110ea565b60405180910390fd5b61093d82600083610be7565b5050565b60008060008373ffffffffffffffffffffffffffffffffffffffff1673ffffffffffffffffffffffffffffffffffffffff168152602001908152602001600020549050919050565b6000600160008473ffffffffffffffffffffffffffffffffffffffff1673ffffffffffffffffffffffffffffffffffffffff16815260200190815260200160002060008373ffffffffffffffffffffffffffffffffffffffff1673ffffffffffffffffffffffffffffffffffffffff16815260200190815260200160002054905092915050565b600073ffffffffffffffffffffffffffffffffffffffff168473ffffffffffffffffffffffffffffffffffffffff1603610a825760006040517fe602df05000000000000000000000000000000000000000000000000000000008152600401610a7991906110ea565b60405180910390fd5b600073ffffffffffffffffffffffffffffffffffffffff168373ffffffffffffffffffffffffffffffffffffffff1603610af45760006040517f94280d62000000000000000000000000000000000000000000000000000000008152600401610aeb91906110ea565b60405180910390fd5b81600160008673ffffffffffffffffffffffffffffffffffffffff1673ffffffffffffffffffffffffffffffffffffffff16815260200190815260200160002060008573ffffffffffffffffffffffffffffffffffffffff1673ffffffffffffffffffffffffffffffffffffffff168152602001908152602001600020819055508015610be1578273ffffffffffffffffffffffffffffffffffffffff168473ffffffffffffffffffffffffffffffffffffffff167f8c5be1e5ebec7d5bd14f71427d1e84f3dd0314c0f7b2291e5b200ac8c7c3b92584604051610bd89190610fdc565b60405180910390a35b50505050565b600073ffffffffffffffffffffffffffffffffffffffff168373ffffffffffffffffffffffffffffffffffffffff1603610c39578060026000828254610c2d91906114c6565b92505081905550610d0c565b60008060008573ffffffffffffffffffffffffffffffffffffffff1673ffffffffffffffffffffffffffffffffffffffff16815260200190815260200160002054905081811015610cc5578381836040517fe450d38c000000000000000000000000000000000000000000000000000000008152600401610cbc93929190611566565b60405180910390fd5b8181036000808673ffffffffffffffffffffffffffffffffffffffff1673ffffffffffffffffffffffffffffffffffffffff16815260200190815260200160002081905550505b600073ffffffffffffffffffffffffffffffffffffffff168273ffffffffffffffffffffffffffffffffffffffff1603610d555780600260008282540392505081905550610da2565b806000808473ffffffffffffffffffffffffffffffffffffffff1673ffffffffffffffffffffffffffffffffffffffff168152602001908152602001600020600082825401925050819055505b8173ffffffffffffffffffffffffffffffffffffffff168373ffffffffffffffffffffffffffffffffffffffff167fddf252ad1be2c89b69c2b068fc378daa952ba7f163c4a11628f55a4df523b3ef83604051610dff9190610fdc565b60405180910390a3505050565b600081519050919050565b600082825260208201905092915050565b60005b83811015610e46578082015181840152602081019050610e2b565b60008484015250505050565b6000601f19601f8301169050919050565b6000610e6e82610e0c565b610e788185610e17565b9350610e88818560208601610e28565b610e9181610e52565b840191505092915050565b60006020820190508181036000830152610eb68184610e63565b905092915050565b600080fd5b600073ffffffffffffffffffffffffffffffffffffffff82169050919050565b6000610eee82610ec3565b9050919050565b610efe81610ee3565b8114610f0957600080fd5b50565b600081359050610f1b81610ef5565b92915050565b6000819050919050565b610f3481610f21565b8114610f3f57600080fd5b50565b600081359050610f5181610f2b565b92915050565b60008060408385031215610f6e57610f6d610ebe565b5b6000610f7c85828601610f0c565b9250506020610f8d85828601610f42565b9150509250929050565b60008115159050919050565b610fac81610f97565b82525050565b6000602082019050610fc76000830184610fa3565b92915050565b610fd681610f21565b82525050565b6000602082019050610ff16000830184610fcd565b92915050565b6000806000606084860312156110105761100f610ebe565b5b600061101e86828701610f0c565b935050602061102f86828701610f0c565b925050604061104086828701610f42565b9150509250925092565b600060ff82169050919050565b6110608161104a565b82525050565b600060208201905061107b6000830184611057565b92915050565b60006020828403121561109757611096610ebe565b5b60006110a584828501610f42565b91505092915050565b6000602082840312156110c4576110c3610ebe565b5b60006110d284828501610f0c565b91505092915050565b6110e481610ee3565b82525050565b60006020820190506110ff60008301846110db565b92915050565b6000806040838503121561111c5761111b610ebe565b5b600061112a85828601610f0c565b925050602061113b85828601610f0c565b9150509250929050565b7f4e487b7100000000000000000000000000000000000000000000000000000000600052602260045260246000fd5b6000600282049050600182168061118c57607f821691505b60208210810361119f5761119e611145565b5b50919050565b7f4e487b7100000000000000000000000000000000000000000000000000000000600052601160045260246000fd5b60006111df82610f21565b91506111ea83610f21565b9250828203905081811115611202576112016111a5565b5b92915050565b7f4f6e6c7920746865206f776e65722063616e2063616c6c20746869732066756e60008201527f6374696f6e000000000000000000000000000000000000000000000000000000602082015250565b6000611264602583610e17565b915061126f82611208565b604082019050919050565b6000602082019050818103600083015261129381611257565b9050919050565b7f4d696e74696e6720416c72656164792053746f70706564210000000000000000600082015250565b60006112d0601883610e17565b91506112db8261129a565b602082019050919050565b600060208201905081810360008301526112ff816112c3565b9050919050565b60008160011c9050919050565b6000808291508390505b600185111561135d57808604811115611339576113386111a5565b5b60018516156113485780820291505b808102905061135685611306565b945061131d565b94509492505050565b6000826113765760019050611432565b816113845760009050611432565b816001811461139a57600281146113a4576113d3565b6001915050611432565b60ff8411156113b6576113b56111a5565b5b8360020a9150848211156113cd576113cc6111a5565b5b50611432565b5060208310610133831016604e8410600b84101617156114085782820a905083811115611403576114026111a5565b5b611432565b6114158484846001611313565b9250905081840481111561142c5761142b6111a5565b5b81810290505b9392505050565b600061144482610f21565b915061144f8361104a565b925061147c7fffffffffffffffffffffffffffffffffffffffffffffffffffffffffffffffff8484611366565b905092915050565b600061148f82610f21565b915061149a83610f21565b92508282026114a881610f21565b915082820484148315176114bf576114be6111a5565b5b5092915050565b60006114d182610f21565b91506114dc83610f21565b92508282019050808211156114f4576114f36111a5565b5b92915050565b7f4d696e74696e6720776f756c6420657863656564206d617820737570706c7900600082015250565b6000611530601f83610e17565b915061153b826114fa565b602082019050919050565b6000602082019050818103600083015261155f81611523565b9050919050565b600060608201905061157b60008301866110db565b6115886020830185610fcd565b6115956040830184610fcd565b94935050505056fea26469706673582212204d8154acdc6aac52cab799dca04d96253d8ab179ab27cf4e116172ea50f45b1c64736f6c63430008140033",
  "linkReferences": {},
  "deployedLinkReferences": {}
}